{
  "_format": "hh-sol-artifact-1",
  "contractName": "NFTMarketPlace",
  "sourceName": "contracts/NFTMarketPlace.sol",
  "abi": [
    {
      "inputs": [
        {
          "internalType": "address payable",
          "name": "_feeRecipient",
          "type": "address"
        }
      ],
      "stateMutability": "nonpayable",
      "type": "constructor"
    },
    {
      "inputs": [],
      "name": "FailedCall",
      "type": "error"
    },
    {
      "inputs": [
        {
          "internalType": "uint256",
          "name": "balance",
          "type": "uint256"
        },
        {
          "internalType": "uint256",
          "name": "needed",
          "type": "uint256"
        }
      ],
      "name": "InsufficientBalance",
      "type": "error"
    },
    {
      "inputs": [],
      "name": "ReentrancyGuardReentrantCall",
      "type": "error"
    },
    {
      "anonymous": false,
      "inputs": [
        {
          "indexed": true,
          "internalType": "address",
          "name": "seller",
          "type": "address"
        },
        {
          "indexed": true,
          "internalType": "address",
          "name": "nftContract",
          "type": "address"
        },
        {
          "indexed": true,
          "internalType": "uint256",
          "name": "tokenId",
          "type": "uint256"
        },
        {
          "indexed": false,
          "internalType": "uint256",
          "name": "price",
          "type": "uint256"
        }
      ],
      "name": "ItemListed",
      "type": "event"
    },
    {
      "anonymous": false,
      "inputs": [
        {
          "indexed": true,
          "internalType": "address",
          "name": "buyer",
          "type": "address"
        },
        {
          "indexed": true,
          "internalType": "address",
          "name": "nftContract",
          "type": "address"
        },
        {
          "indexed": true,
          "internalType": "uint256",
          "name": "tokenId",
          "type": "uint256"
        },
        {
          "indexed": false,
          "internalType": "uint256",
          "name": "price",
          "type": "uint256"
        }
      ],
      "name": "ItemSold",
      "type": "event"
    },
    {
      "anonymous": false,
      "inputs": [
        {
          "indexed": true,
          "internalType": "address",
          "name": "seller",
          "type": "address"
        },
        {
          "indexed": true,
          "internalType": "address",
          "name": "nftContract",
          "type": "address"
        },
        {
          "indexed": false,
          "internalType": "uint256",
          "name": "tokenId",
          "type": "uint256"
        }
      ],
      "name": "ListingCancelled",
      "type": "event"
    },
    {
      "inputs": [
        {
          "internalType": "address",
          "name": "nftContract",
          "type": "address"
        },
        {
          "internalType": "uint256",
          "name": "tokenId",
          "type": "uint256"
        }
      ],
      "name": "buyItem",
      "outputs": [],
      "stateMutability": "payable",
      "type": "function"
    },
    {
      "inputs": [
        {
          "internalType": "address",
          "name": "nftContract",
          "type": "address"
        },
        {
          "internalType": "uint256",
          "name": "tokenId",
          "type": "uint256"
        }
      ],
      "name": "cancelListing",
      "outputs": [],
      "stateMutability": "nonpayable",
      "type": "function"
    },
    {
      "inputs": [],
      "name": "feeBasisPoints",
      "outputs": [
        {
          "internalType": "uint256",
          "name": "",
          "type": "uint256"
        }
      ],
      "stateMutability": "view",
      "type": "function"
    },
    {
      "inputs": [],
      "name": "feeRecipient",
      "outputs": [
        {
          "internalType": "address payable",
          "name": "",
          "type": "address"
        }
      ],
      "stateMutability": "view",
      "type": "function"
    },
    {
      "inputs": [
        {
          "internalType": "address",
          "name": "nftContract",
          "type": "address"
        },
        {
          "internalType": "uint256",
          "name": "tokenId",
          "type": "uint256"
        }
      ],
      "name": "getListing",
      "outputs": [
        {
          "components": [
            {
              "internalType": "address",
              "name": "seller",
              "type": "address"
            },
            {
              "internalType": "uint256",
              "name": "price",
              "type": "uint256"
            },
            {
              "internalType": "bool",
              "name": "isActive",
              "type": "bool"
            }
          ],
          "internalType": "struct NFTMarketPlace.Listing",
          "name": "",
          "type": "tuple"
        }
      ],
      "stateMutability": "view",
      "type": "function"
    },
    {
      "inputs": [
        {
          "internalType": "address",
          "name": "nftContract",
          "type": "address"
        },
        {
          "internalType": "uint256",
          "name": "tokenId",
          "type": "uint256"
        },
        {
          "internalType": "uint256",
          "name": "price",
          "type": "uint256"
        }
      ],
      "name": "listItem",
      "outputs": [],
      "stateMutability": "nonpayable",
      "type": "function"
    },
    {
      "inputs": [
        {
          "internalType": "address",
          "name": "",
          "type": "address"
        },
        {
          "internalType": "uint256",
          "name": "",
          "type": "uint256"
        }
      ],
      "name": "listings",
      "outputs": [
        {
          "internalType": "address",
          "name": "seller",
          "type": "address"
        },
        {
          "internalType": "uint256",
          "name": "price",
          "type": "uint256"
        },
        {
          "internalType": "bool",
          "name": "isActive",
          "type": "bool"
        }
      ],
      "stateMutability": "view",
      "type": "function"
    }
  ],
  "bytecode": "0x608060405260fa60015534801561001557600080fd5b50604051611b33380380611b3383398181016040528101906100379190610158565b6001600081905550600073ffffffffffffffffffffffffffffffffffffffff168173ffffffffffffffffffffffffffffffffffffffff16036100ae576040517f08c379a00000000000000000000000000000000000000000000000000000000081526004016100a5906101e2565b60405180910390fd5b80600260006101000a81548173ffffffffffffffffffffffffffffffffffffffff021916908373ffffffffffffffffffffffffffffffffffffffff16021790555050610202565b600080fd5b600073ffffffffffffffffffffffffffffffffffffffff82169050919050565b6000610125826100fa565b9050919050565b6101358161011a565b811461014057600080fd5b50565b6000815190506101528161012c565b92915050565b60006020828403121561016e5761016d6100f5565b5b600061017c84828501610143565b91505092915050565b600082825260208201905092915050565b7f496e76616c69642066656520726563697069656e740000000000000000000000600082015250565b60006101cc601583610185565b91506101d782610196565b602082019050919050565b600060208201905081810360008301526101fb816101bf565b9050919050565b611922806102116000396000f3fe60806040526004361061006f5760003560e01c806389bfd38f1161004e57806389bfd38f1461011b5780639f37092a14610144578063b2ddee0614610160578063b8606eef146101895761006f565b806207df301461007457806346904840146100b357806388700d1c146100de575b600080fd5b34801561008057600080fd5b5061009b60048036038101906100969190611096565b6101b4565b6040516100aa9392919061110f565b60405180910390f35b3480156100bf57600080fd5b506100c8610218565b6040516100d59190611167565b60405180910390f35b3480156100ea57600080fd5b5061010560048036038101906101009190611096565b61023e565b60405161011291906111f1565b60405180910390f35b34801561012757600080fd5b50610142600480360381019061013d919061120c565b610324565b005b61015e60048036038101906101599190611096565b61072b565b005b34801561016c57600080fd5b5061018760048036038101906101829190611096565b610b32565b005b34801561019557600080fd5b5061019e610e60565b6040516101ab919061125f565b60405180910390f35b6003602052816000526040600020602052806000526040600020600091509150508060000160009054906101000a900473ffffffffffffffffffffffffffffffffffffffff16908060010154908060020160009054906101000a900460ff16905083565b600260009054906101000a900473ffffffffffffffffffffffffffffffffffffffff1681565b610246610fc4565b600360008473ffffffffffffffffffffffffffffffffffffffff1673ffffffffffffffffffffffffffffffffffffffff16815260200190815260200160002060008381526020019081526020016000206040518060600160405290816000820160009054906101000a900473ffffffffffffffffffffffffffffffffffffffff1673ffffffffffffffffffffffffffffffffffffffff1673ffffffffffffffffffffffffffffffffffffffff168152602001600182015481526020016002820160009054906101000a900460ff161515151581525050905092915050565b61032c610e66565b6000811161036f576040517f08c379a0000000000000000000000000000000000000000000000000000000008152600401610366906112d7565b60405180910390fd5b3373ffffffffffffffffffffffffffffffffffffffff168373ffffffffffffffffffffffffffffffffffffffff16636352211e846040518263ffffffff1660e01b81526004016103bf919061125f565b602060405180830381865afa1580156103dc573d6000803e3d6000fd5b505050506040513d601f19601f82011682018060405250810190610400919061130c565b73ffffffffffffffffffffffffffffffffffffffff1614610456576040517f08c379a000000000000000000000000000000000000000000000000000000000815260040161044d90611385565b60405180910390fd5b3073ffffffffffffffffffffffffffffffffffffffff168373ffffffffffffffffffffffffffffffffffffffff1663081812fc846040518263ffffffff1660e01b81526004016104a6919061125f565b602060405180830381865afa1580156104c3573d6000803e3d6000fd5b505050506040513d601f19601f820116820180604052508101906104e7919061130c565b73ffffffffffffffffffffffffffffffffffffffff16148061058157508273ffffffffffffffffffffffffffffffffffffffff1663e985e9c533306040518363ffffffff1660e01b815260040161053f9291906113a5565b602060405180830381865afa15801561055c573d6000803e3d6000fd5b505050506040513d601f19601f8201168201806040525081019061058091906113fa565b5b6105c0576040517f08c379a00000000000000000000000000000000000000000000000000000000081526004016105b790611499565b60405180910390fd5b60405180606001604052803373ffffffffffffffffffffffffffffffffffffffff16815260200182815260200160011515815250600360008573ffffffffffffffffffffffffffffffffffffffff1673ffffffffffffffffffffffffffffffffffffffff168152602001908152602001600020600084815260200190815260200160002060008201518160000160006101000a81548173ffffffffffffffffffffffffffffffffffffffff021916908373ffffffffffffffffffffffffffffffffffffffff1602179055506020820151816001015560408201518160020160006101000a81548160ff021916908315150217905550905050818373ffffffffffffffffffffffffffffffffffffffff163373ffffffffffffffffffffffffffffffffffffffff167fd547e933094f12a9159076970143ebe73234e64480317844b0dcb36117116de484604051610716919061125f565b60405180910390a4610726610eac565b505050565b610733610e66565b6000600360008473ffffffffffffffffffffffffffffffffffffffff1673ffffffffffffffffffffffffffffffffffffffff168152602001908152602001600020600083815260200190815260200160002090508060020160009054906101000a900460ff166107d8576040517f08c379a00000000000000000000000000000000000000000000000000000000081526004016107cf90611505565b60405180910390fd5b8060010154341461081e576040517f08c379a000000000000000000000000000000000000000000000000000000000815260040161081590611571565b60405180910390fd5b3373ffffffffffffffffffffffffffffffffffffffff168160000160009054906101000a900473ffffffffffffffffffffffffffffffffffffffff1673ffffffffffffffffffffffffffffffffffffffff16036108b0576040517f08c379a00000000000000000000000000000000000000000000000000000000081526004016108a7906115dd565b60405180910390fd5b60008160020160006101000a81548160ff0219169083151502179055506000612710600154346108e0919061162c565b6108ea919061169d565b9050600081346108fa91906116ce565b9050610949818460000160009054906101000a900473ffffffffffffffffffffffffffffffffffffffff1673ffffffffffffffffffffffffffffffffffffffff16610eb690919063ffffffff16565b61099482600260009054906101000a900473ffffffffffffffffffffffffffffffffffffffff1673ffffffffffffffffffffffffffffffffffffffff16610eb690919063ffffffff16565b8473ffffffffffffffffffffffffffffffffffffffff166342842e0e8460000160009054906101000a900473ffffffffffffffffffffffffffffffffffffffff1633876040518463ffffffff1660e01b81526004016109f593929190611702565b600060405180830381600087803b158015610a0f57600080fd5b505af1158015610a23573d6000803e3d6000fd5b50505050600360008673ffffffffffffffffffffffffffffffffffffffff1673ffffffffffffffffffffffffffffffffffffffff1681526020019081526020016000206000858152602001908152602001600020600080820160006101000a81549073ffffffffffffffffffffffffffffffffffffffff021916905560018201600090556002820160006101000a81549060ff02191690555050838573ffffffffffffffffffffffffffffffffffffffff163373ffffffffffffffffffffffffffffffffffffffff167fc36542c7a190a4c20a7f15a0ddc46871de452f269f15b0e621f11b48463b299f34604051610b1b919061125f565b60405180910390a4505050610b2e610eac565b5050565b610b3a610e66565b6000600360008473ffffffffffffffffffffffffffffffffffffffff1673ffffffffffffffffffffffffffffffffffffffff168152602001908152602001600020600083815260200190815260200160002090508060020160009054906101000a900460ff16610bdf576040517f08c379a0000000000000000000000000000000000000000000000000000000008152600401610bd690611785565b60405180910390fd5b3373ffffffffffffffffffffffffffffffffffffffff168160000160009054906101000a900473ffffffffffffffffffffffffffffffffffffffff1673ffffffffffffffffffffffffffffffffffffffff1614610c71576040517f08c379a0000000000000000000000000000000000000000000000000000000008152600401610c68906117f1565b60405180910390fd5b3373ffffffffffffffffffffffffffffffffffffffff168373ffffffffffffffffffffffffffffffffffffffff16636352211e846040518263ffffffff1660e01b8152600401610cc1919061125f565b602060405180830381865afa158015610cde573d6000803e3d6000fd5b505050506040513d601f19601f82011682018060405250810190610d02919061130c565b73ffffffffffffffffffffffffffffffffffffffff1614610d58576040517f08c379a0000000000000000000000000000000000000000000000000000000008152600401610d4f9061185d565b60405180910390fd5b600360008473ffffffffffffffffffffffffffffffffffffffff1673ffffffffffffffffffffffffffffffffffffffff1681526020019081526020016000206000838152602001908152602001600020600080820160006101000a81549073ffffffffffffffffffffffffffffffffffffffff021916905560018201600090556002820160006101000a81549060ff021916905550508273ffffffffffffffffffffffffffffffffffffffff163373ffffffffffffffffffffffffffffffffffffffff167fe1bfe61cb157e0896411ccf9a5c40e4c346f7bb6e1d2a44de4a724f0cb5c6fb084604051610e4b919061125f565b60405180910390a350610e5c610eac565b5050565b60015481565b600260005403610ea2576040517f3ee5aeb500000000000000000000000000000000000000000000000000000000815260040160405180910390fd5b6002600081905550565b6001600081905550565b80471015610efd5747816040517fcf479181000000000000000000000000000000000000000000000000000000008152600401610ef492919061187d565b60405180910390fd5b6000808373ffffffffffffffffffffffffffffffffffffffff1683604051610f24906118d7565b60006040518083038185875af1925050503d8060008114610f61576040519150601f19603f3d011682016040523d82523d6000602084013e610f66565b606091505b509150915081610f7a57610f7981610f80565b5b50505050565b600081511115610f9257805160208201fd5b6040517fd6bda27500000000000000000000000000000000000000000000000000000000815260040160405180910390fd5b6040518060600160405280600073ffffffffffffffffffffffffffffffffffffffff168152602001600081526020016000151581525090565b600080fd5b600073ffffffffffffffffffffffffffffffffffffffff82169050919050565b600061102d82611002565b9050919050565b61103d81611022565b811461104857600080fd5b50565b60008135905061105a81611034565b92915050565b6000819050919050565b61107381611060565b811461107e57600080fd5b50565b6000813590506110908161106a565b92915050565b600080604083850312156110ad576110ac610ffd565b5b60006110bb8582860161104b565b92505060206110cc85828601611081565b9150509250929050565b6110df81611022565b82525050565b6110ee81611060565b82525050565b60008115159050919050565b611109816110f4565b82525050565b600060608201905061112460008301866110d6565b61113160208301856110e5565b61113e6040830184611100565b949350505050565b600061115182611002565b9050919050565b61116181611146565b82525050565b600060208201905061117c6000830184611158565b92915050565b61118b81611022565b82525050565b61119a81611060565b82525050565b6111a9816110f4565b82525050565b6060820160008201516111c56000850182611182565b5060208201516111d86020850182611191565b5060408201516111eb60408501826111a0565b50505050565b600060608201905061120660008301846111af565b92915050565b60008060006060848603121561122557611224610ffd565b5b60006112338682870161104b565b935050602061124486828701611081565b925050604061125586828701611081565b9150509250925092565b600060208201905061127460008301846110e5565b92915050565b600082825260208201905092915050565b7f5072696365206d757374206265203e2030000000000000000000000000000000600082015250565b60006112c160118361127a565b91506112cc8261128b565b602082019050919050565b600060208201905081810360008301526112f0816112b4565b9050919050565b60008151905061130681611034565b92915050565b60006020828403121561132257611321610ffd565b5b6000611330848285016112f7565b91505092915050565b7f4e6f7420746865204e4654206f776e6572000000000000000000000000000000600082015250565b600061136f60118361127a565b915061137a82611339565b602082019050919050565b6000602082019050818103600083015261139e81611362565b9050919050565b60006040820190506113ba60008301856110d6565b6113c760208301846110d6565b9392505050565b6113d7816110f4565b81146113e257600080fd5b50565b6000815190506113f4816113ce565b92915050565b6000602082840312156114105761140f610ffd565b5b600061141e848285016113e5565b91505092915050565b7f4d61726b6574706c616365206e6f7420617070726f76656420746f207472616e60008201527f736665722074686973204e465400000000000000000000000000000000000000602082015250565b6000611483602d8361127a565b915061148e82611427565b604082019050919050565b600060208201905081810360008301526114b281611476565b9050919050565b7f4e6f7420666f722073616c650000000000000000000000000000000000000000600082015250565b60006114ef600c8361127a565b91506114fa826114b9565b602082019050919050565b6000602082019050818103600083015261151e816114e2565b9050919050565b7f496e636f7272656374207061796d656e74000000000000000000000000000000600082015250565b600061155b60118361127a565b915061156682611525565b602082019050919050565b6000602082019050818103600083015261158a8161154e565b9050919050565b7f53656c6c65722063616e6e6f7420627579206f776e206c697374696e67000000600082015250565b60006115c7601d8361127a565b91506115d282611591565b602082019050919050565b600060208201905081810360008301526115f6816115ba565b9050919050565b7f4e487b7100000000000000000000000000000000000000000000000000000000600052601160045260246000fd5b600061163782611060565b915061164283611060565b925082820261165081611060565b91508282048414831517611667576116666115fd565b5b5092915050565b7f4e487b7100000000000000000000000000000000000000000000000000000000600052601260045260246000fd5b60006116a882611060565b91506116b383611060565b9250826116c3576116c261166e565b5b828204905092915050565b60006116d982611060565b91506116e483611060565b92508282039050818111156116fc576116fb6115fd565b5b92915050565b600060608201905061171760008301866110d6565b61172460208301856110d6565b61173160408301846110e5565b949350505050565b7f4e6f742061637469766500000000000000000000000000000000000000000000600082015250565b600061176f600a8361127a565b915061177a82611739565b602082019050919050565b6000602082019050818103600083015261179e81611762565b9050919050565b7f4e6f742073656c6c657200000000000000000000000000000000000000000000600082015250565b60006117db600a8361127a565b91506117e6826117a5565b602082019050919050565b6000602082019050818103600083015261180a816117ce565b9050919050565b7f4e6f206c6f6e67657220746865204e4654206f776e6572000000000000000000600082015250565b600061184760178361127a565b915061185282611811565b602082019050919050565b600060208201905081810360008301526118768161183a565b9050919050565b600060408201905061189260008301856110e5565b61189f60208301846110e5565b9392505050565b600081905092915050565b50565b60006118c16000836118a6565b91506118cc826118b1565b600082019050919050565b60006118e2826118b4565b915081905091905056fea2646970667358221220c1080435816d45c078a35f98e716858fa33b9db5999e04d51fd2012b0d0ba3bb64736f6c634300081c0033",
  "linkReferences": {},
  "deployedLinkReferences": {}
}