{
  "_format": "hh-sol-artifact-1",
  "contractName": "SimpleNFT",
  "sourceName": "contracts/SimpleNFT.sol",
  "abi": [
    {
      "inputs": [],
      "stateMutability": "nonpayable",
      "type": "constructor"
    },
    {
      "inputs": [
        {
          "internalType": "address",
          "name": "sender",
          "type": "address"
        },
        {
          "internalType": "uint256",
          "name": "tokenId",
          "type": "uint256"
        },
        {
          "internalType": "address",
          "name": "owner",
          "type": "address"
        }
      ],
      "name": "ERC721IncorrectOwner",
      "type": "error"
    },
    {
      "inputs": [
        {
          "internalType": "address",
          "name": "operator",
          "type": "address"
        },
        {
          "internalType": "uint256",
          "name": "tokenId",
          "type": "uint256"
        }
      ],
      "name": "ERC721InsufficientApproval",
      "type": "error"
    },
    {
      "inputs": [
        {
          "internalType": "address",
          "name": "approver",
          "type": "address"
        }
      ],
      "name": "ERC721InvalidApprover",
      "type": "error"
    },
    {
      "inputs": [
        {
          "internalType": "address",
          "name": "operator",
          "type": "address"
        }
      ],
      "name": "ERC721InvalidOperator",
      "type": "error"
    },
    {
      "inputs": [
        {
          "internalType": "address",
          "name": "owner",
          "type": "address"
        }
      ],
      "name": "ERC721InvalidOwner",
      "type": "error"
    },
    {
      "inputs": [
        {
          "internalType": "address",
          "name": "receiver",
          "type": "address"
        }
      ],
      "name": "ERC721InvalidReceiver",
      "type": "error"
    },
    {
      "inputs": [
        {
          "internalType": "address",
          "name": "sender",
          "type": "address"
        }
      ],
      "name": "ERC721InvalidSender",
      "type": "error"
    },
    {
      "inputs": [
        {
          "internalType": "uint256",
          "name": "tokenId",
          "type": "uint256"
        }
      ],
      "name": "ERC721NonexistentToken",
      "type": "error"
    },
    {
      "inputs": [
        {
          "internalType": "address",
          "name": "owner",
          "type": "address"
        }
      ],
      "name": "OwnableInvalidOwner",
      "type": "error"
    },
    {
      "inputs": [
        {
          "internalType": "address",
          "name": "account",
          "type": "address"
        }
      ],
      "name": "OwnableUnauthorizedAccount",
      "type": "error"
    },
    {
      "anonymous": false,
      "inputs": [
        {
          "indexed": true,
          "internalType": "address",
          "name": "owner",
          "type": "address"
        },
        {
          "indexed": true,
          "internalType": "address",
          "name": "approved",
          "type": "address"
        },
        {
          "indexed": true,
          "internalType": "uint256",
          "name": "tokenId",
          "type": "uint256"
        }
      ],
      "name": "Approval",
      "type": "event"
    },
    {
      "anonymous": false,
      "inputs": [
        {
          "indexed": true,
          "internalType": "address",
          "name": "owner",
          "type": "address"
        },
        {
          "indexed": true,
          "internalType": "address",
          "name": "operator",
          "type": "address"
        },
        {
          "indexed": false,
          "internalType": "bool",
          "name": "approved",
          "type": "bool"
        }
      ],
      "name": "ApprovalForAll",
      "type": "event"
    },
    {
      "anonymous": false,
      "inputs": [
        {
          "indexed": false,
          "internalType": "uint256",
          "name": "_fromTokenId",
          "type": "uint256"
        },
        {
          "indexed": false,
          "internalType": "uint256",
          "name": "_toTokenId",
          "type": "uint256"
        }
      ],
      "name": "BatchMetadataUpdate",
      "type": "event"
    },
    {
      "anonymous": false,
      "inputs": [
        {
          "indexed": false,
          "internalType": "uint256",
          "name": "_tokenId",
          "type": "uint256"
        }
      ],
      "name": "MetadataUpdate",
      "type": "event"
    },
    {
      "anonymous": false,
      "inputs": [
        {
          "indexed": true,
          "internalType": "address",
          "name": "previousOwner",
          "type": "address"
        },
        {
          "indexed": true,
          "internalType": "address",
          "name": "newOwner",
          "type": "address"
        }
      ],
      "name": "OwnershipTransferred",
      "type": "event"
    },
    {
      "anonymous": false,
      "inputs": [
        {
          "indexed": true,
          "internalType": "address",
          "name": "from",
          "type": "address"
        },
        {
          "indexed": true,
          "internalType": "address",
          "name": "to",
          "type": "address"
        },
        {
          "indexed": true,
          "internalType": "uint256",
          "name": "tokenId",
          "type": "uint256"
        }
      ],
      "name": "Transfer",
      "type": "event"
    },
    {
      "inputs": [
        {
          "internalType": "address",
          "name": "to",
          "type": "address"
        },
        {
          "internalType": "uint256",
          "name": "tokenId",
          "type": "uint256"
        }
      ],
      "name": "approve",
      "outputs": [],
      "stateMutability": "nonpayable",
      "type": "function"
    },
    {
      "inputs": [
        {
          "internalType": "address",
          "name": "owner",
          "type": "address"
        }
      ],
      "name": "balanceOf",
      "outputs": [
        {
          "internalType": "uint256",
          "name": "",
          "type": "uint256"
        }
      ],
      "stateMutability": "view",
      "type": "function"
    },
    {
      "inputs": [
        {
          "internalType": "uint256",
          "name": "tokenId",
          "type": "uint256"
        }
      ],
      "name": "getApproved",
      "outputs": [
        {
          "internalType": "address",
          "name": "",
          "type": "address"
        }
      ],
      "stateMutability": "view",
      "type": "function"
    },
    {
      "inputs": [
        {
          "internalType": "address",
          "name": "owner",
          "type": "address"
        },
        {
          "internalType": "address",
          "name": "operator",
          "type": "address"
        }
      ],
      "name": "isApprovedForAll",
      "outputs": [
        {
          "internalType": "bool",
          "name": "",
          "type": "bool"
        }
      ],
      "stateMutability": "view",
      "type": "function"
    },
    {
      "inputs": [
        {
          "internalType": "address",
          "name": "to",
          "type": "address"
        }
      ],
      "name": "mint",
      "outputs": [
        {
          "internalType": "uint256",
          "name": "",
          "type": "uint256"
        }
      ],
      "stateMutability": "nonpayable",
      "type": "function"
    },
    {
      "inputs": [],
      "name": "name",
      "outputs": [
        {
          "internalType": "string",
          "name": "",
          "type": "string"
        }
      ],
      "stateMutability": "view",
      "type": "function"
    },
    {
      "inputs": [],
      "name": "owner",
      "outputs": [
        {
          "internalType": "address",
          "name": "",
          "type": "address"
        }
      ],
      "stateMutability": "view",
      "type": "function"
    },
    {
      "inputs": [
        {
          "internalType": "uint256",
          "name": "tokenId",
          "type": "uint256"
        }
      ],
      "name": "ownerOf",
      "outputs": [
        {
          "internalType": "address",
          "name": "",
          "type": "address"
        }
      ],
      "stateMutability": "view",
      "type": "function"
    },
    {
      "inputs": [],
      "name": "renounceOwnership",
      "outputs": [],
      "stateMutability": "nonpayable",
      "type": "function"
    },
    {
      "inputs": [
        {
          "internalType": "address",
          "name": "to",
          "type": "address"
        },
        {
          "internalType": "string",
          "name": "uri",
          "type": "string"
        }
      ],
      "name": "safeMint",
      "outputs": [
        {
          "internalType": "uint256",
          "name": "",
          "type": "uint256"
        }
      ],
      "stateMutability": "nonpayable",
      "type": "function"
    },
    {
      "inputs": [
        {
          "internalType": "address",
          "name": "from",
          "type": "address"
        },
        {
          "internalType": "address",
          "name": "to",
          "type": "address"
        },
        {
          "internalType": "uint256",
          "name": "tokenId",
          "type": "uint256"
        }
      ],
      "name": "safeTransferFrom",
      "outputs": [],
      "stateMutability": "nonpayable",
      "type": "function"
    },
    {
      "inputs": [
        {
          "internalType": "address",
          "name": "from",
          "type": "address"
        },
        {
          "internalType": "address",
          "name": "to",
          "type": "address"
        },
        {
          "internalType": "uint256",
          "name": "tokenId",
          "type": "uint256"
        },
        {
          "internalType": "bytes",
          "name": "data",
          "type": "bytes"
        }
      ],
      "name": "safeTransferFrom",
      "outputs": [],
      "stateMutability": "nonpayable",
      "type": "function"
    },
    {
      "inputs": [
        {
          "internalType": "address",
          "name": "operator",
          "type": "address"
        },
        {
          "internalType": "bool",
          "name": "approved",
          "type": "bool"
        }
      ],
      "name": "setApprovalForAll",
      "outputs": [],
      "stateMutability": "nonpayable",
      "type": "function"
    },
    {
      "inputs": [
        {
          "internalType": "bytes4",
          "name": "interfaceId",
          "type": "bytes4"
        }
      ],
      "name": "supportsInterface",
      "outputs": [
        {
          "internalType": "bool",
          "name": "",
          "type": "bool"
        }
      ],
      "stateMutability": "view",
      "type": "function"
    },
    {
      "inputs": [],
      "name": "symbol",
      "outputs": [
        {
          "internalType": "string",
          "name": "",
          "type": "string"
        }
      ],
      "stateMutability": "view",
      "type": "function"
    },
    {
      "inputs": [
        {
          "internalType": "uint256",
          "name": "tokenId",
          "type": "uint256"
        }
      ],
      "name": "tokenURI",
      "outputs": [
        {
          "internalType": "string",
          "name": "",
          "type": "string"
        }
      ],
      "stateMutability": "view",
      "type": "function"
    },
    {
      "inputs": [
        {
          "internalType": "address",
          "name": "from",
          "type": "address"
        },
        {
          "internalType": "address",
          "name": "to",
          "type": "address"
        },
        {
          "internalType": "uint256",
          "name": "tokenId",
          "type": "uint256"
        }
      ],
      "name": "transferFrom",
      "outputs": [],
      "stateMutability": "nonpayable",
      "type": "function"
    },
    {
      "inputs": [
        {
          "internalType": "address",
          "name": "newOwner",
          "type": "address"
        }
      ],
      "name": "transferOwnership",
      "outputs": [],
      "stateMutability": "nonpayable",
      "type": "function"
    }
  ],
  "bytecode": "0x608060405234801561001057600080fd5b50336040518060400160405280600981526020017f53696d706c654e465400000000000000000000000000000000000000000000008152506040518060400160405280600481526020017f534e465400000000000000000000000000000000000000000000000000000000815250816000908161008d919061043d565b50806001908161009d919061043d565b505050600073ffffffffffffffffffffffffffffffffffffffff168173ffffffffffffffffffffffffffffffffffffffff16036101125760006040517f1e4fbdf70000000000000000000000000000000000000000000000000000000081526004016101099190610550565b60405180910390fd5b6101218161012760201b60201c565b5061056b565b6000600760009054906101000a900473ffffffffffffffffffffffffffffffffffffffff16905081600760006101000a81548173ffffffffffffffffffffffffffffffffffffffff021916908373ffffffffffffffffffffffffffffffffffffffff1602179055508173ffffffffffffffffffffffffffffffffffffffff168173ffffffffffffffffffffffffffffffffffffffff167f8be0079c531659141344cd1fd0a4f28419497f9722a3daafe3b4186f6b6457e060405160405180910390a35050565b600081519050919050565b7f4e487b7100000000000000000000000000000000000000000000000000000000600052604160045260246000fd5b7f4e487b7100000000000000000000000000000000000000000000000000000000600052602260045260246000fd5b6000600282049050600182168061026e57607f821691505b60208210810361028157610280610227565b5b50919050565b60008190508160005260206000209050919050565b60006020601f8301049050919050565b600082821b905092915050565b6000600883026102e97fffffffffffffffffffffffffffffffffffffffffffffffffffffffffffffffff826102ac565b6102f386836102ac565b95508019841693508086168417925050509392505050565b6000819050919050565b6000819050919050565b600061033a6103356103308461030b565b610315565b61030b565b9050919050565b6000819050919050565b6103548361031f565b61036861036082610341565b8484546102b9565b825550505050565b600090565b61037d610370565b61038881848461034b565b505050565b5b818110156103ac576103a1600082610375565b60018101905061038e565b5050565b601f8211156103f1576103c281610287565b6103cb8461029c565b810160208510156103da578190505b6103ee6103e68561029c565b83018261038d565b50505b505050565b600082821c905092915050565b6000610414600019846008026103f6565b1980831691505092915050565b600061042d8383610403565b9150826002028217905092915050565b610446826101ed565b67ffffffffffffffff81111561045f5761045e6101f8565b5b6104698254610256565b6104748282856103b0565b600060209050601f8311600181146104a75760008415610495578287015190505b61049f8582610421565b865550610507565b601f1984166104b586610287565b60005b828110156104dd578489015182556001820191506020850194506020810190506104b8565b868310156104fa57848901516104f6601f891682610403565b8355505b6001600288020188555050505b505050505050565b600073ffffffffffffffffffffffffffffffffffffffff82169050919050565b600061053a8261050f565b9050919050565b61054a8161052f565b82525050565b60006020820190506105656000830184610541565b92915050565b6126fb8061057a6000396000f3fe608060405234801561001057600080fd5b50600436106101165760003560e01c8063715018a6116100a2578063b88d4fde11610071578063b88d4fde146102df578063c87b56dd146102fb578063d204c45e1461032b578063e985e9c51461035b578063f2fde38b1461038b57610116565b8063715018a61461027d5780638da5cb5b1461028757806395d89b41146102a5578063a22cb465146102c357610116565b806323b872dd116100e957806323b872dd146101b557806342842e0e146101d15780636352211e146101ed5780636a6278421461021d57806370a082311461024d57610116565b806301ffc9a71461011b57806306fdde031461014b578063081812fc14610169578063095ea7b314610199575b600080fd5b61013560048036038101906101309190611b53565b6103a7565b6040516101429190611b9b565b60405180910390f35b6101536103b9565b6040516101609190611c46565b60405180910390f35b610183600480360381019061017e9190611c9e565b61044b565b6040516101909190611d0c565b60405180910390f35b6101b360048036038101906101ae9190611d53565b610467565b005b6101cf60048036038101906101ca9190611d93565b61047d565b005b6101eb60048036038101906101e69190611d93565b61057f565b005b61020760048036038101906102029190611c9e565b61059f565b6040516102149190611d0c565b60405180910390f35b61023760048036038101906102329190611de6565b6105b1565b6040516102449190611e22565b60405180910390f35b61026760048036038101906102629190611de6565b6105d3565b6040516102749190611e22565b60405180910390f35b61028561068d565b005b61028f6106a1565b60405161029c9190611d0c565b60405180910390f35b6102ad6106cb565b6040516102ba9190611c46565b60405180910390f35b6102dd60048036038101906102d89190611e69565b61075d565b005b6102f960048036038101906102f49190611fde565b610773565b005b61031560048036038101906103109190611c9e565b610798565b6040516103229190611c46565b60405180910390f35b61034560048036038101906103409190612102565b6107aa565b6040516103529190611e22565b60405180910390f35b6103756004803603810190610370919061215e565b6107e8565b6040516103829190611b9b565b60405180910390f35b6103a560048036038101906103a09190611de6565b61087c565b005b60006103b282610902565b9050919050565b6060600080546103c8906121cd565b80601f01602080910402602001604051908101604052809291908181526020018280546103f4906121cd565b80156104415780601f1061041657610100808354040283529160200191610441565b820191906000526020600020905b81548152906001019060200180831161042457829003601f168201915b5050505050905090565b600061045682610963565b50610460826109eb565b9050919050565b6104798282610474610a28565b610a30565b5050565b600073ffffffffffffffffffffffffffffffffffffffff168273ffffffffffffffffffffffffffffffffffffffff16036104ef5760006040517f64a0ae920000000000000000000000000000000000000000000000000000000081526004016104e69190611d0c565b60405180910390fd5b600061050383836104fe610a28565b610a42565b90508373ffffffffffffffffffffffffffffffffffffffff168173ffffffffffffffffffffffffffffffffffffffff1614610579578382826040517f64283d7b000000000000000000000000000000000000000000000000000000008152600401610570939291906121fe565b60405180910390fd5b50505050565b61059a83838360405180602001604052806000815250610773565b505050565b60006105aa82610963565b9050919050565b60006105cc82604051806020016040528060008152506107aa565b9050919050565b60008073ffffffffffffffffffffffffffffffffffffffff168273ffffffffffffffffffffffffffffffffffffffff16036106465760006040517f89c62b6400000000000000000000000000000000000000000000000000000000815260040161063d9190611d0c565b60405180910390fd5b600360008373ffffffffffffffffffffffffffffffffffffffff1673ffffffffffffffffffffffffffffffffffffffff168152602001908152602001600020549050919050565b610695610c5c565b61069f6000610ce3565b565b6000600760009054906101000a900473ffffffffffffffffffffffffffffffffffffffff16905090565b6060600180546106da906121cd565b80601f0160208091040260200160405190810160405280929190818152602001828054610706906121cd565b80156107535780601f1061072857610100808354040283529160200191610753565b820191906000526020600020905b81548152906001019060200180831161073657829003601f168201915b5050505050905090565b61076f610768610a28565b8383610da9565b5050565b61077e84848461047d565b610792610789610a28565b85858585610f18565b50505050565b60606107a3826110c9565b9050919050565b60008060085490506107bc84826111dc565b6107c681846111fa565b600860008154809291906107d990612264565b91905055508091505092915050565b6000600560008473ffffffffffffffffffffffffffffffffffffffff1673ffffffffffffffffffffffffffffffffffffffff16815260200190815260200160002060008373ffffffffffffffffffffffffffffffffffffffff1673ffffffffffffffffffffffffffffffffffffffff16815260200190815260200160002060009054906101000a900460ff16905092915050565b610884610c5c565b600073ffffffffffffffffffffffffffffffffffffffff168173ffffffffffffffffffffffffffffffffffffffff16036108f65760006040517f1e4fbdf70000000000000000000000000000000000000000000000000000000081526004016108ed9190611d0c565b60405180910390fd5b6108ff81610ce3565b50565b6000634906490660e01b7bffffffffffffffffffffffffffffffffffffffffffffffffffffffff1916827bffffffffffffffffffffffffffffffffffffffffffffffffffffffff1916148061095c575061095b82611256565b5b9050919050565b60008061096f83611338565b9050600073ffffffffffffffffffffffffffffffffffffffff168173ffffffffffffffffffffffffffffffffffffffff16036109e257826040517f7e2732890000000000000000000000000000000000000000000000000000000081526004016109d99190611e22565b60405180910390fd5b80915050919050565b60006004600083815260200190815260200160002060009054906101000a900473ffffffffffffffffffffffffffffffffffffffff169050919050565b600033905090565b610a3d8383836001611375565b505050565b600080610a4e84611338565b9050600073ffffffffffffffffffffffffffffffffffffffff168373ffffffffffffffffffffffffffffffffffffffff1614610a9057610a8f81848661153a565b5b600073ffffffffffffffffffffffffffffffffffffffff168173ffffffffffffffffffffffffffffffffffffffff1614610b2157610ad2600085600080611375565b6001600360008373ffffffffffffffffffffffffffffffffffffffff1673ffffffffffffffffffffffffffffffffffffffff168152602001908152602001600020600082825403925050819055505b600073ffffffffffffffffffffffffffffffffffffffff168573ffffffffffffffffffffffffffffffffffffffff1614610ba4576001600360008773ffffffffffffffffffffffffffffffffffffffff1673ffffffffffffffffffffffffffffffffffffffff168152602001908152602001600020600082825401925050819055505b846002600086815260200190815260200160002060006101000a81548173ffffffffffffffffffffffffffffffffffffffff021916908373ffffffffffffffffffffffffffffffffffffffff160217905550838573ffffffffffffffffffffffffffffffffffffffff168273ffffffffffffffffffffffffffffffffffffffff167fddf252ad1be2c89b69c2b068fc378daa952ba7f163c4a11628f55a4df523b3ef60405160405180910390a4809150509392505050565b610c64610a28565b73ffffffffffffffffffffffffffffffffffffffff16610c826106a1565b73ffffffffffffffffffffffffffffffffffffffff1614610ce157610ca5610a28565b6040517f118cdaa7000000000000000000000000000000000000000000000000000000008152600401610cd89190611d0c565b60405180910390fd5b565b6000600760009054906101000a900473ffffffffffffffffffffffffffffffffffffffff16905081600760006101000a81548173ffffffffffffffffffffffffffffffffffffffff021916908373ffffffffffffffffffffffffffffffffffffffff1602179055508173ffffffffffffffffffffffffffffffffffffffff168173ffffffffffffffffffffffffffffffffffffffff167f8be0079c531659141344cd1fd0a4f28419497f9722a3daafe3b4186f6b6457e060405160405180910390a35050565b600073ffffffffffffffffffffffffffffffffffffffff168273ffffffffffffffffffffffffffffffffffffffff1603610e1a57816040517f5b08ba18000000000000000000000000000000000000000000000000000000008152600401610e119190611d0c565b60405180910390fd5b80600560008573ffffffffffffffffffffffffffffffffffffffff1673ffffffffffffffffffffffffffffffffffffffff16815260200190815260200160002060008473ffffffffffffffffffffffffffffffffffffffff1673ffffffffffffffffffffffffffffffffffffffff16815260200190815260200160002060006101000a81548160ff0219169083151502179055508173ffffffffffffffffffffffffffffffffffffffff168373ffffffffffffffffffffffffffffffffffffffff167f17307eab39ab6107e8899845ad3d59bd9653f200f220920489ca2b5937696c3183604051610f0b9190611b9b565b60405180910390a3505050565b60008373ffffffffffffffffffffffffffffffffffffffff163b11156110c2578273ffffffffffffffffffffffffffffffffffffffff1663150b7a02868685856040518563ffffffff1660e01b8152600401610f779493929190612301565b6020604051808303816000875af1925050508015610fb357506040513d601f19601f82011682018060405250810190610fb09190612362565b60015b611037573d8060008114610fe3576040519150601f19603f3d011682016040523d82523d6000602084013e610fe8565b606091505b50600081510361102f57836040517f64a0ae920000000000000000000000000000000000000000000000000000000081526004016110269190611d0c565b60405180910390fd5b805160208201fd5b63150b7a0260e01b7bffffffffffffffffffffffffffffffffffffffffffffffffffffffff1916817bffffffffffffffffffffffffffffffffffffffffffffffffffffffff1916146110c057836040517f64a0ae920000000000000000000000000000000000000000000000000000000081526004016110b79190611d0c565b60405180910390fd5b505b5050505050565b60606110d482610963565b5060006006600084815260200190815260200160002080546110f5906121cd565b80601f0160208091040260200160405190810160405280929190818152602001828054611121906121cd565b801561116e5780601f106111435761010080835404028352916020019161116e565b820191906000526020600020905b81548152906001019060200180831161115157829003601f168201915b50505050509050600061117f6115fe565b905060008151036111945781925050506111d7565b6000825111156111c95780826040516020016111b19291906123cb565b604051602081830303815290604052925050506111d7565b6111d284611615565b925050505b919050565b6111f682826040518060200160405280600081525061167e565b5050565b8060066000848152602001908152602001600020908161121a919061259b565b507ff8e1a15aba9398e019f0b49df1a4fde98ee17ae345cb5f6b5e2c27f5033e8ce78260405161124a9190611e22565b60405180910390a15050565b60007f80ac58cd000000000000000000000000000000000000000000000000000000007bffffffffffffffffffffffffffffffffffffffffffffffffffffffff1916827bffffffffffffffffffffffffffffffffffffffffffffffffffffffff1916148061132157507f5b5e139f000000000000000000000000000000000000000000000000000000007bffffffffffffffffffffffffffffffffffffffffffffffffffffffff1916827bffffffffffffffffffffffffffffffffffffffffffffffffffffffff1916145b806113315750611330826116a2565b5b9050919050565b60006002600083815260200190815260200160002060009054906101000a900473ffffffffffffffffffffffffffffffffffffffff169050919050565b80806113ae5750600073ffffffffffffffffffffffffffffffffffffffff168273ffffffffffffffffffffffffffffffffffffffff1614155b156114e25760006113be84610963565b9050600073ffffffffffffffffffffffffffffffffffffffff168373ffffffffffffffffffffffffffffffffffffffff161415801561142957508273ffffffffffffffffffffffffffffffffffffffff168173ffffffffffffffffffffffffffffffffffffffff1614155b801561143c575061143a81846107e8565b155b1561147e57826040517fa9fbf51f0000000000000000000000000000000000000000000000000000000081526004016114759190611d0c565b60405180910390fd5b81156114e057838573ffffffffffffffffffffffffffffffffffffffff168273ffffffffffffffffffffffffffffffffffffffff167f8c5be1e5ebec7d5bd14f71427d1e84f3dd0314c0f7b2291e5b200ac8c7c3b92560405160405180910390a45b505b836004600085815260200190815260200160002060006101000a81548173ffffffffffffffffffffffffffffffffffffffff021916908373ffffffffffffffffffffffffffffffffffffffff16021790555050505050565b61154583838361170c565b6115f957600073ffffffffffffffffffffffffffffffffffffffff168373ffffffffffffffffffffffffffffffffffffffff16036115ba57806040517f7e2732890000000000000000000000000000000000000000000000000000000081526004016115b19190611e22565b60405180910390fd5b81816040517f177e802f0000000000000000000000000000000000000000000000000000000081526004016115f092919061266d565b60405180910390fd5b505050565b606060405180602001604052806000815250905090565b606061162082610963565b50600061162b6115fe565b9050600081511161164b5760405180602001604052806000815250611676565b80611655846117cd565b6040516020016116669291906123cb565b6040516020818303038152906040525b915050919050565b611688838361189b565b61169d611693610a28565b6000858585610f18565b505050565b60007f01ffc9a7000000000000000000000000000000000000000000000000000000007bffffffffffffffffffffffffffffffffffffffffffffffffffffffff1916827bffffffffffffffffffffffffffffffffffffffffffffffffffffffff1916149050919050565b60008073ffffffffffffffffffffffffffffffffffffffff168373ffffffffffffffffffffffffffffffffffffffff16141580156117c457508273ffffffffffffffffffffffffffffffffffffffff168473ffffffffffffffffffffffffffffffffffffffff161480611785575061178484846107e8565b5b806117c357508273ffffffffffffffffffffffffffffffffffffffff166117ab836109eb565b73ffffffffffffffffffffffffffffffffffffffff16145b5b90509392505050565b6060600060016117dc84611994565b01905060008167ffffffffffffffff8111156117fb576117fa611eb3565b5b6040519080825280601f01601f19166020018201604052801561182d5781602001600182028036833780820191505090505b509050600082602083010190505b600115611890578080600190039150507f3031323334353637383961626364656600000000000000000000000000000000600a86061a8153600a858161188457611883612696565b5b0494506000850361183b575b819350505050919050565b600073ffffffffffffffffffffffffffffffffffffffff168273ffffffffffffffffffffffffffffffffffffffff160361190d5760006040517f64a0ae920000000000000000000000000000000000000000000000000000000081526004016119049190611d0c565b60405180910390fd5b600061191b83836000610a42565b9050600073ffffffffffffffffffffffffffffffffffffffff168173ffffffffffffffffffffffffffffffffffffffff161461198f5760006040517f73c6ac6e0000000000000000000000000000000000000000000000000000000081526004016119869190611d0c565b60405180910390fd5b505050565b600080600090507a184f03e93ff9f4daa797ed6e38ed64bf6a1f01000000000000000083106119f2577a184f03e93ff9f4daa797ed6e38ed64bf6a1f01000000000000000083816119e8576119e7612696565b5b0492506040810190505b6d04ee2d6d415b85acef81000000008310611a2f576d04ee2d6d415b85acef81000000008381611a2557611a24612696565b5b0492506020810190505b662386f26fc100008310611a5e57662386f26fc100008381611a5457611a53612696565b5b0492506010810190505b6305f5e1008310611a87576305f5e1008381611a7d57611a7c612696565b5b0492506008810190505b6127108310611aac576127108381611aa257611aa1612696565b5b0492506004810190505b60648310611acf5760648381611ac557611ac4612696565b5b0492506002810190505b600a8310611ade576001810190505b80915050919050565b6000604051905090565b600080fd5b600080fd5b60007fffffffff0000000000000000000000000000000000000000000000000000000082169050919050565b611b3081611afb565b8114611b3b57600080fd5b50565b600081359050611b4d81611b27565b92915050565b600060208284031215611b6957611b68611af1565b5b6000611b7784828501611b3e565b91505092915050565b60008115159050919050565b611b9581611b80565b82525050565b6000602082019050611bb06000830184611b8c565b92915050565b600081519050919050565b600082825260208201905092915050565b60005b83811015611bf0578082015181840152602081019050611bd5565b60008484015250505050565b6000601f19601f8301169050919050565b6000611c1882611bb6565b611c228185611bc1565b9350611c32818560208601611bd2565b611c3b81611bfc565b840191505092915050565b60006020820190508181036000830152611c608184611c0d565b905092915050565b6000819050919050565b611c7b81611c68565b8114611c8657600080fd5b50565b600081359050611c9881611c72565b92915050565b600060208284031215611cb457611cb3611af1565b5b6000611cc284828501611c89565b91505092915050565b600073ffffffffffffffffffffffffffffffffffffffff82169050919050565b6000611cf682611ccb565b9050919050565b611d0681611ceb565b82525050565b6000602082019050611d216000830184611cfd565b92915050565b611d3081611ceb565b8114611d3b57600080fd5b50565b600081359050611d4d81611d27565b92915050565b60008060408385031215611d6a57611d69611af1565b5b6000611d7885828601611d3e565b9250506020611d8985828601611c89565b9150509250929050565b600080600060608486031215611dac57611dab611af1565b5b6000611dba86828701611d3e565b9350506020611dcb86828701611d3e565b9250506040611ddc86828701611c89565b9150509250925092565b600060208284031215611dfc57611dfb611af1565b5b6000611e0a84828501611d3e565b91505092915050565b611e1c81611c68565b82525050565b6000602082019050611e376000830184611e13565b92915050565b611e4681611b80565b8114611e5157600080fd5b50565b600081359050611e6381611e3d565b92915050565b60008060408385031215611e8057611e7f611af1565b5b6000611e8e85828601611d3e565b9250506020611e9f85828601611e54565b9150509250929050565b600080fd5b600080fd5b7f4e487b7100000000000000000000000000000000000000000000000000000000600052604160045260246000fd5b611eeb82611bfc565b810181811067ffffffffffffffff82111715611f0a57611f09611eb3565b5b80604052505050565b6000611f1d611ae7565b9050611f298282611ee2565b919050565b600067ffffffffffffffff821115611f4957611f48611eb3565b5b611f5282611bfc565b9050602081019050919050565b82818337600083830152505050565b6000611f81611f7c84611f2e565b611f13565b905082815260208101848484011115611f9d57611f9c611eae565b5b611fa8848285611f5f565b509392505050565b600082601f830112611fc557611fc4611ea9565b5b8135611fd5848260208601611f6e565b91505092915050565b60008060008060808587031215611ff857611ff7611af1565b5b600061200687828801611d3e565b945050602061201787828801611d3e565b935050604061202887828801611c89565b925050606085013567ffffffffffffffff81111561204957612048611af6565b5b61205587828801611fb0565b91505092959194509250565b600067ffffffffffffffff82111561207c5761207b611eb3565b5b61208582611bfc565b9050602081019050919050565b60006120a56120a084612061565b611f13565b9050828152602081018484840111156120c1576120c0611eae565b5b6120cc848285611f5f565b509392505050565b600082601f8301126120e9576120e8611ea9565b5b81356120f9848260208601612092565b91505092915050565b6000806040838503121561211957612118611af1565b5b600061212785828601611d3e565b925050602083013567ffffffffffffffff81111561214857612147611af6565b5b612154858286016120d4565b9150509250929050565b6000806040838503121561217557612174611af1565b5b600061218385828601611d3e565b925050602061219485828601611d3e565b9150509250929050565b7f4e487b7100000000000000000000000000000000000000000000000000000000600052602260045260246000fd5b600060028204905060018216806121e557607f821691505b6020821081036121f8576121f761219e565b5b50919050565b60006060820190506122136000830186611cfd565b6122206020830185611e13565b61222d6040830184611cfd565b949350505050565b7f4e487b7100000000000000000000000000000000000000000000000000000000600052601160045260246000fd5b600061226f82611c68565b91507fffffffffffffffffffffffffffffffffffffffffffffffffffffffffffffffff82036122a1576122a0612235565b5b600182019050919050565b600081519050919050565b600082825260208201905092915050565b60006122d3826122ac565b6122dd81856122b7565b93506122ed818560208601611bd2565b6122f681611bfc565b840191505092915050565b60006080820190506123166000830187611cfd565b6123236020830186611cfd565b6123306040830185611e13565b818103606083015261234281846122c8565b905095945050505050565b60008151905061235c81611b27565b92915050565b60006020828403121561237857612377611af1565b5b60006123868482850161234d565b91505092915050565b600081905092915050565b60006123a582611bb6565b6123af818561238f565b93506123bf818560208601611bd2565b80840191505092915050565b60006123d7828561239a565b91506123e3828461239a565b91508190509392505050565b60008190508160005260206000209050919050565b60006020601f8301049050919050565b600082821b905092915050565b6000600883026124517fffffffffffffffffffffffffffffffffffffffffffffffffffffffffffffffff82612414565b61245b8683612414565b95508019841693508086168417925050509392505050565b6000819050919050565b600061249861249361248e84611c68565b612473565b611c68565b9050919050565b6000819050919050565b6124b28361247d565b6124c66124be8261249f565b848454612421565b825550505050565b600090565b6124db6124ce565b6124e68184846124a9565b505050565b5b8181101561250a576124ff6000826124d3565b6001810190506124ec565b5050565b601f82111561254f57612520816123ef565b61252984612404565b81016020851015612538578190505b61254c61254485612404565b8301826124eb565b50505b505050565b600082821c905092915050565b600061257260001984600802612554565b1980831691505092915050565b600061258b8383612561565b9150826002028217905092915050565b6125a482611bb6565b67ffffffffffffffff8111156125bd576125bc611eb3565b5b6125c782546121cd565b6125d282828561250e565b600060209050601f83116001811461260557600084156125f3578287015190505b6125fd858261257f565b865550612665565b601f198416612613866123ef565b60005b8281101561263b57848901518255600182019150602085019450602081019050612616565b868310156126585784890151612654601f891682612561565b8355505b6001600288020188555050505b505050505050565b60006040820190506126826000830185611cfd565b61268f6020830184611e13565b9392505050565b7f4e487b7100000000000000000000000000000000000000000000000000000000600052601260045260246000fdfea26469706673582212208153964e25ceb92370cd268da0f70831349c33d659cc7d59dc6f1ae296d53a6e64736f6c634300081c0033",
  "linkReferences": {},
  "deployedLinkReferences": {}
}